:100000002AC0BDC143C042C041C040C03FC0E2C6DB
:100010003DC03CC03BC0A8C439C038C037C036C0A2
:1000200035C034C033C032C031C030C02FC02EC044
:100030002DC02CC0C6C0B1C0B2C0B3C0B4C0B5C022
:10004000B6C0B7C0B8C0B9C00AC70BC70CC70DC788
:100050000EC70FC710C711241FBECFEFD4E0DEBFFD
:10006000CDBF11E0A0E0B1E0ECE8FFE002C00590F8
:100070000D92A832B107D9F721E0A8E2B1E001C0A2
:100080001D92A335B207E1F70ED77EC7B9CF87B16E
:100090008F7C87B988B1806388B9ECEBF0E010827F
:1000A0001092B9001092B8001092BB0084E08083D7
:1000B000089594EA9093BC00ECEBF0E090819923D2
:1000C000ECF79091B900987F983029F09091B900A1
:1000D000987F9031E1F48093BB0084E88093BC006A
:1000E000ECEBF0E080818823ECF78091B900887F09
:1000F000883181F02091B900287F81E090E02034A0
:1001000011F480E090E091958195910908958FEF29
:100110009FEF089580E090E0089584E98093BC000B
:1001200008958093BB0084E88093BC00ECEBF0E082
:1001300080818823ECF79091B900987F21E030E02E
:10014000983211F420E030E088279927821B930B26
:100150000895811102C084E801C084EC8093BC0042
:10016000ECEBF0E080818823ECF78091BB0090E01D
:100170000895E82FF0E0E75FFE4F9081823019F498
:10018000637009F49DE1892F089590E08A3091050C
:10019000B0F4FC01E65EFF4F099487E708958AE218
:1001A000089586E2089584E7089584EA089580EA30
:1001B000089585E3089580E2089584E208958FEF1D
:1001C000089581E208959DEC899F912D11249695C3
:1001D0009695969520E1929FA0011124990F292FC1
:1001E000220F220F920F891B842B0895982F92952E
:1001F0009F70990F292F220F220F920F8F70890F56
:100200000895CF9384E655DF80EF8BDF85E651DFDD
:1002100080E09FDFC82F81DFC4FF0BC084E649DF89
:1002200080EF7FDF80E07DDF78DF81E28A95F1F784
:10023000000084E63EDF80EE74DF83EA72DF6DDF6C
:1002400084E637DF80E86DDF80E06BDF66DF84E621
:1002500030DF80E966DF80E064DF5FDF84E629DF8E
:1002600080EA5FDF80E05DDF58DF84E622DF80EB3D
:1002700058DF80E056DF51DF84E61BDF80EC51DF82
:1002800080E04FDF4ADFCF910895EF92FF920F9306
:100290001F93CF93DF93EC018B017A0184E609DF92
:1002A00080E03FDF85E605DF81E053DF8F779EDF6B
:1002B000F701808381E04DDF8F7798DFF80180833D
:1002C00080E047DF8F7392DF888327DFDF91CF9154
:1002D0001F910F91FF90EF900895EF92FF920F936F
:1002E0001F93CF93DF93EC018B017A0184E6E1DE6B
:1002F00080E417DF85E6DDDE81E02BDF8F7376DFBC
:10030000F701808381E025DF8F7170DFF801808342
:1003100080E01FDF6BDF888300DFDF91CF911F91CB
:100320000F91FF90EF9008950F931F93CF93DF935A
:10033000C82FD62F042F843608F0C0E08FEF8D0F22
:100340008C3008F0D1E06C2F8D2F13DF182F002395
:1003500019F0081708F4102F84E6ABDE80E4E1DE24
:10036000812F31DFDEDE8D2F2EDFDBDE8C2F2BDFCA
:10037000D8DED3DEDF91CF911F910F9108951F92A8
:100380000F920FB60F9211248F939F9381E0809369
:1003900046018093450110924401109243018093DD
:1003A0004201109241011092400180910901873170
:1003B00021F0809109018B3071F4809108018B3319
:1003C00051F4809107018B3331F484E690E09093EF
:1003D0003A01809339019F918F910F900FBE0F903A
:1003E0001F90189547E051E068E071E089E091E0E6
:1003F0004CDF9091090181E09C3008F080E080930F
:100400000301089582E484BD81E085BD8CE787BD4A
:10041000089514BC15BC5E9808951F93CF93DF9385
:10042000D82F162FC42F883108F0D0E01C3308F0E5
:1004300010E0CC3308F0C0E084E63BDE80E071DE03
:100440008C2FC1DE6EDE812FBEDE6BDE8D2FBBDE1C
:1004500068DE63DE10923501DF91CF911F91089520
:100460000F931F93CF93DF9386B1D1E0982F9470B1
:1004700082FDD0E086B111E0C82FC87083FD10E086
:1004800080914901811189C0911135C0C11133C0DA
:1004900080913101882309F45DC280913001882365
:1004A00051F1809147019091480101969093480144
:1004B00080934701803D974008F443C281E08093D8
:1004C0004901109248011092470180933F018093A7
:1004D0002F0180932E0147E051E068E071E089E050
:1004E00091E0D3DE9091090181E09C3008F080E03A
:1004F0008093030126C2109248011092470199236C
:1005000061F180913101813041F5CC2309F419C2A8
:10051000909102018927809302018091020181114B
:1005200009C080ED97E090933C0180933B011092CD
:10053000320109C080ED97E090933401809333013C
:1005400081E08093320181E28A95F1F70000809189
:100550003001813009F0F5C10BC0CC2309F4F1C1A1
:1005600080913001813009F0ECC1992309F4E9C18F
:1005700085E08093490180ED97E090933801809366
:10058000370144E051E065E071E086E091E0A5DEEE
:1005900021E22A95F1F70000D4C18091490185300C
:1005A00009F04DC0C11127C080913001882319F195
:1005B00080912C0190912D01019690932D018093B3
:1005C0002C01803D974008F4BCC186E0809349012E
:1005D00010922D0110922C0181E080933F018093B5
:1005E0002E0180932F0144E051E065E071E086E048
:1005F00091E073DE04C010922D0110922C01CC23E7
:1006000009F49FC18091300181119BC18091370114
:1006100090913801892B49F08091370190913801F0
:100620000197909338018093370180913701909121
:100630003801892B09F085C11092490182C180914E
:100640003F01882349F0992309F489C1CC2309F497
:1006500086C110923F0183C1992309F45AC0809149
:100660003101813009F055C080912E0181114FC0B8
:1006700080914901883021F080914901833021F433
:1006800084E0809349010BC0809149018F5F809382
:10069000490180914901853011F4109249018091FE
:1006A0004901843041F580913601882361F08091C1
:1006B0003601843040F44091070160910801809137
:1006C0000901ABDE0FC080913601863058F0809171
:1006D0003601893038F44091040160910501809120
:1006E000060122DE1092490181E080933F01809350
:1006F0002E0180932F0110923E0110923D0181E264
:100700008A95F1F7000080913101813011F4109247
:100710002E0180913F01811104C1CC2309F46CC0EA
:1007200080913001813009F067C080912F018111E3
:1007300063C080914901813091F48091090190E07A
:10074000019668E170E0F9D3809309019091090165
:1007500081E09C3008F080E08093030149C08091E3
:100760004901823051F48091080190E001966CE3D8
:1007700070E0E3D3809308013BC08091490183304E
:1007800051F48091070190E001966CE370E0D5D3BD
:10079000809307012DC080914901863051F48091EA
:1007A000060190E0019664E670E0C7D380930601ED
:1007B0001FC080914901873049F4809105016CE0A8
:1007C000B0D381E0890F8093050112C08091490167
:1007D000883071F400910401609106018091050157
:1007E000C8DC682F802F9DD381E0890F809304019E
:1007F00021E22A95F1F70000C11182C080913D01EC
:1008000090913E01019690933E0180933D0180912D
:100810003D0190913E01843F914008F479C0809160
:100820002A0190912B01019690932B0180932A012C
:100830008436910508F46CC080914901813091F4AF
:100840008091090190E0019668E170E076D3809391
:1008500009019091090181E09C3008F080E08093CB
:10086000030149C080914901823051F4809108010F
:1008700090E001966CE370E060D3809308013BC088
:1008800080914901833051F48091070190E00196F5
:100890006CE370E052D3809307012DC08091490131
:1008A000863051F48091060190E0019664E670E094
:1008B00044D3809306011FC080914901873049F4D9
:1008C000809105016CE02DD381E0890F80930501B3
:1008D00012C080914901883071F400910401609147
:1008E00006018091050145DC682F802F1AD381E035
:1008F000890F8093040110922B0110922A0108C0E5
:1009000010923E0110923D0110922B0110922A018B
:10091000CC2391F080913001813029F410922F0185
:1009200002C0CC2339F080913D0190913E01843F7B
:10093000914020F080E003C080E001C081E080931E
:100940000101D093310110933001809149018093CE
:10095000360105C01092480110924701FECDDF918B
:10096000CF911F910F9108951F920F920FB60F9282
:100970001124FF920F931F932F933F934F935F93F5
:100980006F937F938F939F93AF93BF93CF93DF9397
:10099000EF93FF9380912801909129010196909304
:1009A0002901809328018A3F910550F09091000120
:1009B00081E089278093000110922901109228017B
:1009C00080914501882391F08091430190914401E9
:1009D00001969093440180934301843F914030F00D
:1009E00010924501109244011092430180914201FE
:1009F000882389F080914001909141010196909364
:100A0000410180934001C29730F010924201109250
:100A100041011092400180913B0190913C01892B52
:100A200049F080913B0190913C01019790933C01EA
:100A300080933B018091330190913401892B89F09F
:100A40008091330190913401019790933401809308
:100A500033018091330190913401892B11F410926C
:100A600032018091390190913A01892BB1F0809146
:100A7000390190913A019C012150310930933A019A
:100A800020933901843611F0843111F4BBDC05C0A8
:100A9000803511F0813009F4BCDCE2DC8091490141
:100AA000853069F080914901863049F08091490193
:100AB000873029F080914901883009F054C0809135
:100AC00004011DEC819F912D112496959695969584
:100AD000990F292F220F220F920F891B56DBCBE48F
:100AE000D1E0888380910401819F812D1124869516
:100AF000869586954ADB898380910501819F912D9A
:100B00001124969596959695990F292F220F220FCD
:100B1000920F891B3ADB8F7D8A8380910501819F2B
:100B2000812D11248695869586952FDB8B83809168
:100B30000601819F912D1124969596959695990F72
:100B4000292F220F220F920F891B1FDB8F7D8C8391
:100B500080910601819F812D112486958695869529
:100B600014DB8D83AFC0D091090180910201811106
:100B700011C0809109018823A9F0809109018D306D
:100B800028F0D0910901DC50F12C0EC0D091090160
:100B9000F12C0AC080913201FF24F394811104C02A
:100BA000F12C02C0F12CDCE0809109018C3029F499
:100BB00080910201811101C0DCE080910701CDEC40
:100BC0008C9F912D1124969596959695990F292F86
:100BD000220F220F920F891BD8DA0BE411E0F801E3
:100BE0008083809107018C9F812D112486958695A5
:100BF0008695CBDAF8018183809108018C9F912D35
:100C00001124969596959695990F292F220F220FCC
:100C1000920F891BBADAF8018283809108018C9FB8
:100C2000812D1124869586958695AFDAF801838308
:100C3000DC9FC12D1124C695C695C695CC0F8C2F6F
:100C4000880F880FC80F8D2F8C1B9FDAF8018483C3
:100C5000DA3040F08DECD89F812D11248695869551
:100C6000869505C0F11002C083E601C080E08DDAF0
:100C70008093500180914901813021F580910901D3
:100C80009DEC899F912D1124969596959695990F97
:100C9000292F220F220F920F891B77DA80934F01A1
:100CA000809109018A3050F0809109019DEC899F63
:100CB000812D112486958695869501C083E665DA97
:100CC0008093500180910101882399F1809149011D
:100CD000882379F180914901843059F1809149014B
:100CE000853039F180910001811123C0E0914901E3
:100CF000F0E0EE0FFF1FEA5EFE4F8081E0914901B8
:100D0000F0E0EE0FFF1FEA5EFE4F9181891788F435
:100D10002FEFE82FF0E0E55BFE4F20838F5FE0913F
:100D20004901F0E0EE0FFF1FEA5EFE4F9181891747
:100D300080F380914901882381F0809149018130BD
:100D400061F080914901823041F080914901833006
:100D500021F0809149018430B1F4809149018111E1
:100D600006C080914501882321F021EE03C021EEC9
:100D700001C02FEF90910301911102C08FE701C0D4
:100D80008FEB822301C08FEF9091420191118F7DF3
:100D900020913B0130913C01232B19F490913501B6
:100DA00091118E7F80935101FF91EF91DF91CF914F
:100DB000BF91AF919F918F917F916F915F914F9173
:100DC0003F912F911F910F91FF900F900FBE0F90A9
:100DD0001F9018951F920F920FB60F9211245F93D8
:100DE0006F937F938F939F93AF93BF93EF93FF93F3
:100DF0008FEF85B98BB18C748BB988B18C7F88B932
:100E0000E0914A01F0E0E55BFE4F808185B9809179
:100E10004901853061F080914901863041F080912F
:100E20004901873021F080914901883069F480912F
:100E30004A01823041F080914A01843021F0809152
:100E40004A01811101C02D98E0914A018E2F90E056
:100E50008730910588F4FC01EC5DFF4F0994589AA6
:100E60000BC0599A09C0409A07C0419A05C05C9AC4
:100E700003C05D9A01C05F9A80914A0190E001969B
:100E800067E070E05AD080934A01FF91EF91BF91E3
:100E9000AF919F918F917F916F915F910F900FBE56
:100EA0000F901F9018958FEF84B983E087B983EF77
:100EB0008AB918B81BB882E08093B0008093B10063
:100EC0009CE79093B30080937000109280009AE0AA
:100ED000909381002CE730E03093890020938800C4
:100EE00080936F008093690081E08DBB92DACFD848
:100EF00088D982E390E090933A018093390183E0AE
:100F00008A95F1F700006EDA789480914601882383
:100F1000E1F3809149018111F8CF1092460162DA24
:100F2000F4CF991B79E004C0991F961708F0961B1F
:100F3000881F7A95C9F78095089597FB072E16F4B8
:100F4000009406D077FD08D00BD007FC05D03EF406
:100F5000909581959F4F0895709561957F4F089565
:100F6000AA1BBB1B51E107C0AA1FBB1FA617B707CF
:100F700010F0A61BB70B881F991F5A95A9F78095EB
:0C0F80009095BC01CD010895F894FFCFBE
:100F8C000101010109061924220C1F1C1F1E1F1E22
:100F9C001F1F1E1F1E1F000604060204000200066F
:080FAC00000604060204000225
:00000001FF
